{
  "contractName": "DappTokenSale",
  "abi": [
    {
      "inputs": [
        {
          "internalType": "contract DappToken",
          "name": "_tokenContract",
          "type": "address"
        }
      ],
      "payable": false,
      "stateMutability": "nonpayable",
      "type": "constructor"
    },
    {
      "constant": true,
      "inputs": [],
      "name": "tokenContract",
      "outputs": [
        {
          "internalType": "contract DappToken",
          "name": "",
          "type": "address"
        }
      ],
      "payable": false,
      "stateMutability": "view",
      "type": "function"
    }
  ],
  "bytecode": "0x608060405234801561001057600080fd5b506040516101a43803806101a48339818101604052602081101561003357600080fd5b8101908080519060200190929190505050336000806101000a81548173ffffffffffffffffffffffffffffffffffffffff021916908373ffffffffffffffffffffffffffffffffffffffff16021790555080600160006101000a81548173ffffffffffffffffffffffffffffffffffffffff021916908373ffffffffffffffffffffffffffffffffffffffff1602179055505060d0806100d46000396000f3fe6080604052348015600f57600080fd5b506004361060285760003560e01c806355a373d614602d575b600080fd5b60336075565b604051808273ffffffffffffffffffffffffffffffffffffffff1673ffffffffffffffffffffffffffffffffffffffff16815260200191505060405180910390f35b600160009054906101000a900473ffffffffffffffffffffffffffffffffffffffff168156fea265627a7a72315820ee38b555445e850f9d84f3b711d837b2015f66927a2f9f83d0f9a55ab4692e3c64736f6c63430005100032",
  "source": "pragma solidity >=0.4.0 <0.9.0;\r\nimport \"./DappToken.sol\";\r\n\r\ncontract DappTokenSale {\r\n    address admin;\r\n    DappToken public tokenContract;\r\n\r\n    constructor(DappToken _tokenContract) public {\r\n        // Assign admin\r\n        admin = msg.sender;\r\n        tokenContract = _tokenContract;\r\n        // Token Contract\r\n        // Token Price\r\n    }\r\n}\r\n",
  "sourcePath": "C:\\Users\\Alamin (Programmer)\\Desktop\\Blockchain-App\\5Dapp\\Custom-Erc20Token-Creation\\contracts\\DappTokenSale.sol",
  "compiler": {
    "name": "solc",
    "version": "0.5.16+commit.9c3226ce.Emscripten.clang"
  },
  "schemaVersion": "3.4.3",
  "updatedAt": "2021-10-30T06:46:21.735Z",
  "networkType": "ethereum",
  "devdoc": {
    "methods": {}
  },
  "userdoc": {
    "methods": {}
  }
}