{
  "contractName": "DappTokenSale",
  "abi": [
    {
      "inputs": [
        {
          "internalType": "contract DappToken",
          "name": "_tokenContract",
          "type": "address"
        },
        {
          "internalType": "uint256",
          "name": "_tokenPrice",
          "type": "uint256"
        }
      ],
      "payable": false,
      "stateMutability": "nonpayable",
      "type": "constructor"
    },
    {
      "anonymous": false,
      "inputs": [
        {
          "indexed": false,
          "internalType": "address",
          "name": "_buyer",
          "type": "address"
        },
        {
          "indexed": false,
          "internalType": "uint256",
          "name": "_amount",
          "type": "uint256"
        }
      ],
      "name": "Sell",
      "type": "event"
    },
    {
      "constant": true,
      "inputs": [],
      "name": "tokenContract",
      "outputs": [
        {
          "internalType": "contract DappToken",
          "name": "",
          "type": "address"
        }
      ],
      "payable": false,
      "stateMutability": "view",
      "type": "function"
    },
    {
      "constant": true,
      "inputs": [],
      "name": "tokenPrice",
      "outputs": [
        {
          "internalType": "uint256",
          "name": "",
          "type": "uint256"
        }
      ],
      "payable": false,
      "stateMutability": "view",
      "type": "function"
    },
    {
      "constant": true,
      "inputs": [],
      "name": "tokenSold",
      "outputs": [
        {
          "internalType": "uint256",
          "name": "",
          "type": "uint256"
        }
      ],
      "payable": false,
      "stateMutability": "view",
      "type": "function"
    },
    {
      "constant": false,
      "inputs": [
        {
          "internalType": "uint256",
          "name": "_numberOfToken",
          "type": "uint256"
        }
      ],
      "name": "buyTokens",
      "outputs": [],
      "payable": true,
      "stateMutability": "payable",
      "type": "function"
    }
  ],
  "bytecode": "0x608060405234801561001057600080fd5b506040516102eb3803806102eb8339818101604052604081101561003357600080fd5b810190808051906020019092919080519060200190929190505050336000806101000a81548173ffffffffffffffffffffffffffffffffffffffff021916908373ffffffffffffffffffffffffffffffffffffffff16021790555081600160006101000a81548173ffffffffffffffffffffffffffffffffffffffff021916908373ffffffffffffffffffffffffffffffffffffffff160217905550806002819055505050610204806100e76000396000f3fe60806040526004361061003f5760003560e01c80633610724e14610044578063519ee19e1461007257806355a373d61461009d5780637ff9b596146100f4575b600080fd5b6100706004803603602081101561005a57600080fd5b810190808035906020019092919050505061011f565b005b34801561007e57600080fd5b5061008761019d565b6040518082815260200191505060405180910390f35b3480156100a957600080fd5b506100b26101a3565b604051808273ffffffffffffffffffffffffffffffffffffffff1673ffffffffffffffffffffffffffffffffffffffff16815260200191505060405180910390f35b34801561010057600080fd5b506101096101c9565b6040518082815260200191505060405180910390f35b806003600082825401925050819055507f5e5e995ce3133561afceaa51a9a154d5db228cd7525d34df5185582c18d3df093382604051808373ffffffffffffffffffffffffffffffffffffffff1673ffffffffffffffffffffffffffffffffffffffff1681526020018281526020019250505060405180910390a150565b60035481565b600160009054906101000a900473ffffffffffffffffffffffffffffffffffffffff1681565b6002548156fea265627a7a723158206c311a3af56ea62f71bd0a8ad0bd67f558f1af4726a6c133cd23a41399154e6664736f6c63430005100032",
  "source": "pragma solidity >=0.4.0 <0.9.0;\r\nimport \"./DappToken.sol\";\r\n\r\ncontract DappTokenSale {\r\n    address admin;\r\n    DappToken public tokenContract;\r\n    uint256 public tokenPrice;\r\n    uint256 public tokenSold;\r\n\r\n    // events\r\n    event Sell(address _buyer, uint256 _amount);\r\n\r\n    constructor(DappToken _tokenContract, uint256 _tokenPrice) public {\r\n        // Assign admin\r\n        admin = msg.sender;\r\n        tokenContract = _tokenContract;\r\n        tokenPrice = _tokenPrice;\r\n        // Token Contract\r\n        // Token Price\r\n    }\r\n\r\n    function buyTokens(uint256 _numberOfToken) public payable {\r\n        tokenSold += _numberOfToken;\r\n        emit Sell(msg.sender, _numberOfToken);\r\n        // require that value equal to tokens\r\n        // require that the contract has enough tokens\r\n        // require that a transfer  is successfull\r\n        // keep track of tokenSold\r\n        // trigger sell event\r\n    }\r\n}\r\n",
  "sourcePath": "C:\\Users\\Alamin (Programmer)\\Desktop\\Blockchain-App\\5Dapp\\Custom-Erc20Token-Creation\\contracts\\DappTokenSale.sol",
  "compiler": {
    "name": "solc",
    "version": "0.5.16+commit.9c3226ce.Emscripten.clang"
  },
  "schemaVersion": "3.4.3",
  "updatedAt": "2021-10-30T13:04:23.282Z",
  "devdoc": {
    "methods": {}
  },
  "userdoc": {
    "methods": {}
  }
}